:020000040800F2
:100000000000022029860008191300081B130008AD
:100010001D1300081F130008211300080000000032
:10002000000000000000000000000000D1460008B1
:100030002313000800000000714700082513000882
:100040007986000879860008798600087986000894
:1000500079860008798600083B1300087986000835
:1000600079860008451300084F13000879860008B8
:10007000591300087986000869130008798600087A
:1000800079860008798600087986000879130008C7
:100090008913000899130008A9130008B913000870
:1000A0007986000879860008798600087986000834
:1000B0007986000879860008798600087986000824
:1000C0007986000879860008798600087986000814
:1000D00079860008C513000879860008D513000842
:1000E00079860008798600087986000879860008F4
:1000F00079860008798600087986000879860008E4
:1001000079860008798600087986000879860008D3
:1001100079860008798600087986000879860008C3
:1001200079860008E5130008F51300080514000897
:100130007986000879860008798600081514000879
:1001400025140008351400084514000879860008B5
:10015000551400086514000875140008851400087B
:100160007986000879860008798600087986000873
:10017000798600087986000879860008000000006A
:08018000798600087986000869
:1001900010F8012B11F8013B012A28BF9A42F7D031
:1001A000D01A7047034613F8012B002AFBD1181A06
:1001B000013870470000000000000000000000004F
:1001C00001F0FF01102A2BDB10F0070F08D010F808
:1001D000013B013A8B422DD010F0070F42B3F6D10C
:1001E000F0B441EA012141EA014122F007047FF025
:1001F00000070023F0E80256083C85EA010586EA7C
:10020000010685FA47F5A3FA87F586FA47F6A5FAB7
:1002100087F68EB9EED1F0BC01F0FF0102F00702C3
:1002200032B110F8013B013A83EA010313B1F8D16E
:100230000020704701387047002D06BF354603384F
:10024000073815F0010F07D1013015F4807F02BF88
:10025000013015F4C03F0130F0BC0138704700BFD9
:1002600081F0004102E000BF83F0004330B54FEA67
:1002700041044FEA430594EA050F08BF90EA020FD4
:100280001FBF54EA000C55EA020C7FEA645C7FEA67
:10029000655C00F0E2804FEA5454D4EB5555B8BF8A
:1002A0006D420CDD2C4480EA020281EA030382EAFB
:1002B000000083EA010180EA020281EA0303362D8D
:1002C00088BF30BD11F0004F4FEA01314FF4801C60
:1002D0004CEA113102D0404261EB410113F0004F72
:1002E0004FEA03334CEA133302D0524263EB430329
:1002F00094EA050F00F0A780A4F10104D5F1200EC7
:100300000DDB02FA0EFC22FA05F2801841F1000121
:1003100003FA0EF2801843FA05F359410EE0A5F1F5
:1003200020050EF1200E012A03FA0EFC28BF4CF026
:10033000020C43FA05F3C01851EBE37101F00045DC
:1003400007D54FF0000EDCF1000C7EEB00006EEBE9
:100350000101B1F5801F1BD3B1F5001F0CD3490873
:100360005FEA30004FEA3C0C04F101044FEA4452CA
:1003700012F5800F80F09A80BCF1004F08BF5FEA51
:10038000500C50F1000041EB045141EA050130BD31
:100390005FEA4C0C404141EB0101013C28BFB1F543
:1003A000801FE9D291F0000F04BF01460020B1FA8E
:1003B00081F308BF2033A3F10B03B3F120020CDA61
:1003C0000C3208DD02F1140CC2F10C0201FA0CF03F
:1003D00021FA02F10CE002F11402D8BFC2F1200CA4
:1003E00001FA02F120FA0CFCDCBF41EA0C0190405A
:1003F000E41AA2BF01EB0451294330BD6FEA0404A3
:100400001F3C1CDA0C340EDC04F11404C4F120028D
:1004100020FA04F001FA02F340EA030021FA04F39F
:1004200045EA030130BDC4F10C04C4F1200220FAF6
:1004300002F001FA04F340EA0300294630BD21FA34
:1004400004F0294630BD94F0000F83F4801306BFFA
:1004500081F480110134013D4EE77FEA645C18BFEE
:100460007FEA655C29D094EA050F08BF90EA020F85
:1004700005D054EA000C04BF1946104630BD91EA7D
:10048000030F1EBF0021002030BD5FEA545C05D180
:100490004000494128BF41F0004130BD14F58004BF
:1004A0003CBF01F5801130BD01F0004545F0FE4133
:1004B00041F470014FF0000030BD7FEA645C1ABF68
:1004C000194610467FEA655C1CBF0B46024650EA9F
:1004D000013406BF52EA033591EA030F41F40021CB
:1004E00030BD00BF90F0000F04BF0021704730B551
:1004F0004FF4806404F132044FF000054FF0000126
:1005000050E700BF90F0000F04BF0021704730B5E6
:100510004FF4806404F1320410F0004548BF4042BB
:100520004FF000013EE700BF42004FEAE2014FEA10
:1005300031014FEA02701FBF12F07F4393F07F4FEB
:1005400081F06051704732F07F4208BF704793F0EE
:100550007F4F04BF41F40021704730B54FF4607401
:1005600001F0004521F000411CE700BF50EA010204
:1005700008BF704730B54FF000050AE050EA0102AD
:1005800008BF704730B511F0004502D5404261EB1D
:1005900041014FF4806404F132045FEA915C3FF45E
:1005A000D8AE4FF003025FEADC0C18BF03325FEAFB
:1005B000DC0C18BF033202EBDC02C2F1200300FAAC
:1005C00003FC20FA02F001FA03FE40EA0E0021FAD1
:1005D00002F11444BDE600BF70B54FF0FF0C4CF4BF
:1005E000E06C1CEA11541DBF1CEA135594EA0C0F71
:1005F00095EA0C0F00F0DEF82C4481EA030621EAAC
:100600004C5123EA4C5350EA013518BF52EA0335E6
:1006100041F4801143F4801338D0A0FB02CE4FF098
:100620000005E1FB02E506F00042E0FB03E54FF0C8
:100630000006E1FB03569CF0000F18BF4EF0010EC0
:10064000A4F1FF04B6F5007F64F5407404D25FEABC
:100650004E0E6D4146EB060642EAC62141EA55516F
:100660004FEAC52040EA5E504FEACE2EB4F1FD0CB1
:1006700088BFBCF5E06F1ED8BEF1004F08BF5FEA2F
:10068000500E50F1000041EB045170BD06F00046E1
:1006900046EA010140EA020081EA0301B4EB5C048E
:1006A000C2BFD4EB0C0541EA045170BD41F4801186
:1006B0004FF0000E013C00F3AB8014F1360FDEBFAB
:1006C000002001F0004170BDC4F10004203C35DA87
:1006D0000C341BDC04F11404C4F1200500FA05F30A
:1006E00020FA04F001FA05F240EA020001F00042AB
:1006F00021F0004110EBD37021FA04F642EB060121
:100700005EEA430E08BF20EAD37070BDC4F10C044A
:10071000C4F1200500FA04F320FA05F001FA04F20E
:1007200040EA020001F0004110EBD37041F10001FA
:100730005EEA430E08BF20EAD37070BDC4F1200505
:1007400000FA05F24EEA020E20FA04F301FA05F26D
:1007500043EA020321FA04F001F0004121FA04F215
:1007600020EA020000EBD3705EEA430E08BF20EAE5
:10077000D37070BD94F0000F0FD101F0004640001F
:1007800041EB010111F4801F08BF013CF7D041EAA1
:10079000060195F0000F18BF704703F000465200A5
:1007A00043EB030313F4801F08BF013DF7D043EA76
:1007B0000603704794EA0C0F0CEA135518BF95EA2C
:1007C0000C0F0CD050EA410618BF52EA4306D1D1B3
:1007D00081EA030101F000414FF0000070BD50EAD2
:1007E000410606BF1046194652EA430619D094EA5C
:1007F0000C0F02D150EA013613D195EA0C0F05D146
:1008000052EA03361CBF104619460AD181EA030199
:1008100001F0004141F0FE4141F470014FF0000051
:1008200070BD41F0FE4141F4780170BD70B54FF0EC
:10083000FF0C4CF4E06C1CEA11541DBF1CEA13556C
:1008400094EA0C0F95EA0C0F00F0A7F8A4EB05044E
:1008500081EA030E52EA03354FEA013100F0888045
:100860004FEA03334FF0805545EA131343EA12630E
:100870004FEA022245EA111545EA10654FEA0026C3
:100880000EF000419D4208BF964244F1FD0404F57C
:10089000407402D25B084FEA3202B61A65EB0305D8
:1008A0005B084FEA32024FF480104FF4002CB6EB95
:1008B000020E75EB030E22BFB61A754640EA0C0015
:1008C0005B084FEA3202B6EB020E75EB030E22BF55
:1008D000B61A754640EA5C005B084FEA3202B6EB96
:1008E000020E75EB030E22BFB61A754640EA9C0055
:1008F0005B084FEA3202B6EB020E75EB030E22BF25
:10090000B61A754640EADC0055EA060E18D04FEAE2
:10091000051545EA16754FEA06164FEAC30343EA82
:1009200052734FEAC2025FEA1C1CC0D111F4801F4F
:100930000BD141EA00014FF000004FF0004CB6E748
:1009400011F4801F04BF01430020B4F1FD0C88BFE7
:10095000BCF5E06F3FF6AFAEB5EB030C04BFB6EBF2
:10096000020C5FEA500C50F1000041EB045170BDE5
:100970000EF0004E4EEA113114EB5C04C2BFD4EB12
:100980000C0541EA045170BD41F480114FF0000E96
:10099000013C90E645EA060E8DE60CEA135594EA12
:1009A0000C0F08BF95EA0C0F3FF43BAF94EA0C0F15
:1009B0000AD150EA01347FF434AF95EA0C0F7FF48A
:1009C00025AF104619462CE795EA0C0F06D152EADE
:1009D00003353FF4FDAE1046194622E750EA4106C2
:1009E00018BF52EA43067FF4C5AE50EA41047FF4D3
:1009F0000DAF52EA43057FF4EBAE12E74FEA410236
:100A0000B2F1E04324BFB3F5001CDCF1FE5C0DD96C
:100A100001F0004C4FEAC0024CEA5070B2F1004FB6
:100A200040EB830008BF20F00100704711F0804FB9
:100A300021D113F13872BCBF01F00040704741F47E
:100A400080114FEA5252C2F11802C2F1200C10FA82
:100A50000CF320FA02F018BF40F001004FEAC12366
:100A60004FEAD32303FA0CFC40EA0C0023FA02F30A
:100A70004FEA4303CCE77FEA625307D150EA0133E0
:100A80001EBF4FF0FE4040F44000704701F00040B0
:100A900040F0FE4040F40000704700BF53B94AB92F
:100AA000002908BF00281CBF4FF0FF314FF0FF3076
:100AB00000F00CB8ADF1080C6DE904CE08F032FC82
:100AC000DDF804E0DDE9022304B07047704700BFA1
:100AD00010B5054C237833B9044B13B10448AFF378
:100AE00000800123237010BD98000020000000004A
:100AF000E095000808B5034B1BB103490348AFF369
:100B0000008008BD000000009C000020E095000867
:100B100008B50D480D4B0360032343600023836039
:100B2000C3604FF4102202614FF400124261037659
:100B300043768376C3760377437701F089F800B96B
:100B400008BD00F08FFAFBE7E000002000640040E1
:100B500008B50D480D4B03600323436000238360F9
:100B6000C3604FF4102202614FF400124261037619
:100B700043768376C3760377437701F069F800B94B
:100B800008BD00F06FFAFBE7B800002000680040E5
:100B900010B58AB000230593069307930893099331
:100BA0000368554A934204D0544A93424CD00AB049
:100BB00010BD534A136801331360012B37D0002452
:100BC0000194504B1A6B42F008021A631B6B03F03E
:100BD00008030193019B03230593022206920893C5
:100BE0000923099305A9484801F01CFF2246052165
:100BF000132001F08DFC132001F09AFC2246052100
:100C0000142001F085FC142001F092FC22460521FD
:100C1000152001F07DFC152001F08AFC22460521FB
:100C2000162001F075FC162001F082FCBFE70023BE
:100C30000093344B1A6C42F000721A641B6C03F080
:100C400000730093009BBAE7002302932D4B1A6CAC
:100C500042F080621A641B6C03F080630293029B73
:100C6000274A136801331360012B38D00024049401
:100C7000244B1A6B42F002021A631B6B03F002034F
:100C80000493049B60230593022306930323089394
:100C90000923099305A91D4801F0C4FE2246052138
:100CA0003F2001F035FC3F2001F042FC22460521A7
:100CB000402001F02DFC402001F03AFC22460521A5
:100CC000412001F025FC412001F032FC22460521A3
:100CD000422001F01DFC422001F02AFC67E70023BE
:100CE0000393084B1A6C42F000721A641B6C03F0F9
:100CF00000730393039BB9E7006400400068004061
:100D0000B400002000380240000C02400004024001
:100D100010B582B0002400942A4B1A6B42F4800272
:100D20001A631A6B02F480020092009A01941A6B03
:100D300042F400121A631B6B03F400130193019B2E
:100D4000224605210C2001F0E3FB0C2001F0F0FB12
:100D5000224605210E2001F0DBFB0E2001F0E8FB0E
:100D600022460521392001F0D3FB392001F0E0FBB8
:100D7000224605213A2001F0CBFB3A2001F0D8FBB6
:100D8000224605213B2001F0C3FB3B2001F0D0FBB4
:100D900022460521442001F0BBFB442001F0C8FBA2
:100DA00022460521452001F0B3FB452001F0C0FBA0
:100DB00022460521462001F0ABFB462001F0B8FB9E
:100DC00002B010BD00380240034B0360034B0B60C0
:100DD00080231360704700BF5C0700205C05002083
:100DE000034B0360034B0B604FF480731360704739
:100DF0000805002008010020704700002DE9F04799
:100E00008CB000240794089409940A940B940094DD
:100E1000564B1A6B42F002021A631A6B02F002027E
:100E20000092009A01941A6B42F040021A631A6B06
:100E300002F040020192019A02941A6B42F0010200
:100E40001A631A6B02F001020292029A03941A6B5F
:100E500042F008021A631A6B02F008020392039A26
:100E600004941A6B42F004021A631A6B02F0040233
:100E70000492049A05941A6B42F080021A631A6B6A
:100E800002F080020592059A06941A6B42F0200245
:100E90001A631B6B03F020030693069B344F224614
:100EA0004021384601F0B4FEDFF8CCA00122102129
:100EB000504601F0ADFEDFF8C480012211464046E5
:100EC00001F0A6FE402307930125089509940A9492
:100ED00007A9384601F0A6FD092607964FF4041924
:100EE000CDF82090099507A9384601F09BFD102305
:100EF00007930895099502270A9707A9504601F01C
:100F000091FD30230793CDF82090099507A9194842
:100F100001F088FD0795089509950A9707A94046AD
:100F200001F080FD22460521062001F0F1FA06209D
:100F300001F0FEFA22460521304601F0E9FA30467A
:100F400001F0F6FA224605210A2001F0E1FA0A2012
:100F500001F0EEFA22460521172001F0D9FA1720F8
:100F600001F0E6FA0CB0BDE8F08700BF003802409F
:100F70000018024000080240000002400004024045
:100F800008B50B480B4B03600B4B43600023836099
:100F9000C3604FF48042026143618361C3610362B5
:100FA00001F04CFE00B908BD00F05CF8FBE700BFA3
:100FB000B0070020005C0040801A06002DE9F041D7
:100FC00088B0002303930493059306930793026864
:100FD000204B9A4202D008B0BDE8F0810025009570
:100FE0001D4C236B43F004032363236B03F00403C2
:100FF0000093009B0195236B43F001032363236B54
:1010000003F001030193019B4FF4007303934FF02E
:101010001208CDF81080032706970426079603A927
:101020000E4801F0FFFC4FF480730393CDF810805D
:1010300005950697079603A9094801F0F3FC029568
:10104000236C43F400032364236C03F40003029332
:10105000029BC0E7005C00400038024000080240EC
:101060000000024072B6FEE700B595B030220021C4
:1010700008A807F0E5FB0023039304930593069368
:1010800007930193204A116C41F080511164126C56
:1010900002F080520192019A02931C4B1A6842F4AA
:1010A00080421A601B6803F480430293029B012371
:1010B00008934FF48033099302230E934FF4800278
:1010C0000F9206221092A8221192129304231393D6
:1010D00008A801F091FE98B90F230393022304930B
:1010E000002305934FF4A05306934FF480530793C6
:1010F000052103A802F0D0F820B915B05DF804FB73
:10110000FFF7B0FFFFF7AEFF00380240007000406D
:1011100008B500F071FDFFF7A7FFFFF76FFEFFF7BF
:10112000F7FD00F01BF800F02DFBFFF729FF00F0A2
:10113000BFFAFFF7EDFCFFF70BFD00F05DFB00F0E1
:1011400077FB00F05DFA00F091FB06F081F806F005
:1011500056F8FFF751FE03F0E0F9FEE708B50F4837
:101160000F4B03604FF48273436000238360C360BE
:1011700002220261012242614FF400728261382230
:10118000C2610362436283620A23C36202F05AF9B6
:1011900000B908BDFFF766FFFBE700BFC4080020E9
:1011A000003001402DE9F04389B0002303930493FC
:1011B00005930693079302683F4B9A4202D009B009
:1011C000BDE8F08304460025009503F584335A6C8E
:1011D00042F480525A645A6C02F480520092009A8F
:1011E00001951A6B42F002021A631A6B02F00202B6
:1011F0000192019A02951A6B42F001021A631B6B6D
:1012000003F001030293029B182303934FF002099A
:10121000CDF810904FF00108CDF814800327069701
:101220000526079603A9254801F0FCFB80230393BC
:10123000CDF81090CDF814800697079603A92048A2
:1012400001F0F0FB1F48204B03604FF0C063436088
:101250008560C5604FF48063036145618561C56148
:101260004FF440330362456201F0F6F9E8B9154BDB
:10127000E3649C631548164B03604FF0C063436002
:10128000402383600023C3604FF4806202614361A6
:101290008361C3614FF440320262436201F0DCF9C2
:1012A00030B90A4BA3649C6389E7FFF7DBFEDEE7F6
:1012B000FFF7D8FEF5E700BF003001400004024010
:1012C000000002406408002040640240040800203E
:1012D0005864024000B583B0002200920D4B596C57
:1012E00041F480415964596C01F4804100910099A6
:1012F0000192196C41F0805119641B6C03F080530A
:101300000193019B0F216FF0010001F001F903B07F
:101310005DF804FB00380240FEE7FEE7FEE7FEE76B
:10132000FEE7704708B500F081FC04F063FC01287B
:1013300000D108BD03F04EFAFBE708B5012001F02B
:101340006FFC08BD08B5082001F06AFC08BD08B5AF
:10135000102001F065FC08BD08B5024801F074FAE0
:1013600008BD00BFB40A002008B5024801F06CFABD
:1013700008BD00BF140B002008B5024800F04BFF69
:1013800008BD00BFE000002008B5024800F043FFA0
:1013900008BD00BFE000002008B5024800F03BFF98
:1013A00008BD00BFE000002008B5024800F033FF90
:1013B00008BD00BFE000002008B5202001F030FC8F
:1013C00008BD000008B5024802F07EFE08BD00BF5F
:1013D000C40C002008B5024802F076FE08BD00BF2C
:1013E0007C0C002008B5024801F02EFA08BD00BFB1
:1013F000540A002008B5024801F026FA08BD00BFD3
:101400006408002008B5024801F01EFA08BD00BFBC
:101410000408002008B5024800F0FDFE08BD00BF2A
:10142000B800002008B5024800F0F5FE08BD00BF76
:10143000B800002008B5024800F0EDFE08BD00BF6E
:10144000B800002008B5024800F0E5FE08BD00BF66
:10145000B800002008B5024801F0F6F908BD00BF49
:10146000740B002008B5024801F0EEF908BD00BF7A
:10147000F409002008B5024801F0E6F908BD00BFF4
:10148000D40B002008B5024802F01EFE08BD00BFC4
:10149000340C0020034AD2F8883043F47003C2F8B9
:1014A0008830704700ED00E084B00368184A93422A
:1014B00007D0184A934211D0174A93421BD004B068
:1014C000704700230193154B1A6C42F004021A6412
:1014D0001B6C03F004030193019BF0E700230293CC
:1014E0000E4B1A6C42F008021A641B6C03F00803DE
:1014F0000293029BE3E700230393084B5A6C42F4E8
:1015000000325A645B6C03F400330393039BD6E709
:1015100000080040000C0040004401400038024038
:1015200000B589B0002303930493059306930793B2
:1015300003682C4A934208D02B4A934220D02B4A6E
:10154000934234D009B05DF804FB00230093284B8C
:101550001A6B42F008021A631B6B03F00803009336
:10156000009B4FF4804303930223049301220592CE
:1015700003220692079303A91E4801F053FAE1E7FC
:10158000002301931A4B1A6B42F080021A631B6B03
:1015900003F080030193019B4FF4E0530393022374
:1015A0000493079303A9144801F03CFACAE7002307
:1015B00002930F4B1A6B42F020021A631B6B03F06D
:1015C00020030293029B40230393022304930122EE
:1015D000059206930323079303A9084801F022FA12
:1015E000B0E700BF00080040000C0040004401408C
:1015F00000380240000C0240001C0240001402406F
:1016000000B58FB000230A930B930C930D930893AE
:10161000099301930293039304930593069307930D
:101620002148224A0260A722426083604FF6FF727F
:10163000C2600361836102F099F828BB4FF48053C4
:101640000A930AA9184802F09CF900BB164802F058
:10165000B9F8F8B900230893099308A9124802F0D1
:10166000A1FAD0B960230193002302930393059359
:10167000082201A90C4802F009F988B90A48FFF7C5
:101680004FFF0FB05DF804FBFFF7ECFCD6E7FFF768
:10169000E9FCDBE7FFF7E6FCDCE7FFF7E3FCE1E76B
:1016A000FFF7E0FCEAE700BFAC09002000080040BB
:1016B00000B58FB000230A930B930C930D930893FE
:1016C000099301930293039304930593069307935D
:1016D0002A482B4A0260436083604FF6FF72C26063
:1016E0000361836102F042F8002831D14FF4805346
:1016F0000A930AA9214802F044F960BB1F4802F08E
:1017000061F858BB00230893099308A91B4802F00D
:1017100049FA30BB602301930022029203920592A2
:1017200001A9164802F0B2F8F0B904220DEB02014B
:10173000124802F0ABF8D0B9082201A90F4802F014
:10174000A5F8B8B90D48FFF7EBFE0FB05DF804FB44
:10175000FFF788FCCAE7FFF785FCCFE7FFF782FCBD
:10176000D0E7FFF77FFCD5E7FFF77CFCDDE7FFF76D
:1017700079FCE1E7FFF776FCE4E700BF64090020AD
:10178000000C004000B589B000230193029303933D
:1017900004930593069307931548164A0260436025
:1017A00083604FF6FF72C2600361836101F0DEFF68
:1017B000A0B90F4802F006F898B9602301930022FF
:1017C00002920392059201A9094802F05FF858B904
:1017D0000748FFF7A5FE09B05DF804FBFFF742FCE0
:1017E000E7E7FFF73FFCE8E7FFF73CFCF0E700BF67
:1017F0001C0900200044014008B50A480A4B036058
:101800000A4B436000238360C36003610C22426182
:101810008361C36102F002FB00B908BDFFF722FC3F
:10182000FBE700BFC40C00200010014040420F0045
:1018300008B50B480B4B03600B4B436000238360E0
:10184000C3604FF4806202610C2242618361C36114
:1018500002F0E4FA00B908BDFFF704FCFBE700BFA3
:101860007C0C002000480040A086010008B50A4812
:101870000A4B03604FF4E133436000238360C3608D
:1018800003610C2242618361C36102F0C7FA00B9AF
:1018900008BDFFF7E7FBFBE7340C00200014014014
:1018A0002DE9F0418CB00446002307930893099377
:1018B0000A930B930368764A93420AD0754A93427F
:1018C00000F08280744A934200F000810CB0BDE8C1
:1018D000F08100250095714B5A6C42F010025A6459
:1018E0005A6C02F010020092009A01951A6B42F0B5
:1018F00002021A631A6B02F002020192019A029527
:101900001A6B42F001021A631B6B03F0010302938E
:10191000029B802307934FF00208CDF82080032715
:101920000A9707260B9607A95D4801F07BF84FF44C
:1019300000730793CDF8208009950A970B9607A9A5
:10194000584801F06FF85848584B03604FF0006357
:10195000436040238360C5604FF480630361456149
:101960008561C5614FF440330362456200F074FE47
:1019700020BB4D4BA3639C634D484E4B03604FF01F
:101980000063436000238360C3604FF480620261A0
:1019900043618361C3614FF440320262436200F0ED
:1019A0005BFE70B9424BE3639C6300220521252056
:1019B00000F0AEFD252000F0BBFD87E7FFF752FBEE
:1019C000D7E7FFF74FFBEDE700250395334B1A6C84
:1019D00042F480221A641A6C02F480220392039A61
:1019E00004951A6B42F004021A631B6B03F00403A4
:1019F0000493049B4FF4406307930223089303234B
:101A00000A9307230B9307A92B4801F00BF82B48E7
:101A10002B4B03604FF00063436040238360C5603D
:101A20004FF48063036145618561C5614FF44033C4
:101A30000362456200F010FE20BB204BA3639C6351
:101A40002048214B03604FF0006343600023836014
:101A5000C3604FF48062026143618361C3614FF4EC
:101A600040320262436200F0F7FD70B9154BE36348
:101A70009C6300220621272000F04AFD272000F069
:101A800057FD23E7FFF7EEFAD7E7FFF7EBFAEDE7AD
:101A9000001001400048004000140140003802409E
:101AA0000004024000000240D40B0020B864024051
:101AB000740B00208864024000080240140B0020D0
:101AC00058600240B40A00202860024000250595B5
:101AD000304B5A6C42F020025A645A6C02F02002D9
:101AE0000592059A06951A6B42F040021A631B6B29
:101AF00003F040030693069B4FF4844307930223AD
:101B0000089303230A9308230B9307A9224800F0A4
:101B100089FF2248224B03604FF0206343608560B9
:101B2000C5604FF48063036145618561C5614FF411
:101B300000330362456200F08FFD28BB174BE3635F
:101B40009C631848184B03604FF0206343604023A8
:101B500083600023C3604FF480620261436183614C
:101B6000C3614FF400320262436200F075FD70B948
:101B70000C4BA3639C6300220521472000F0C8FCA6
:101B8000472000F0D5FCA1E6FFF76CFAD6E7FFF797
:101B900069FAEDE70038024000180240540A0020BC
:101BA00028640240F4090020A064024010B50446F5
:101BB0000E4B1A784FF47A73B3FBF2F30C4A1068A9
:101BC000B0FBF3F000F0B8FC68B90F2C01D901208C
:101BD0000AE0002221464FF0FF3000F099FC054B4F
:101BE0001C60002000E0012010BD00BF04000020A8
:101BF000000000200800002008B50B4B1A6842F4D2
:101C000000721A601A6842F480621A601A6842F41C
:101C100080721A60032000F069FC0F20FFF7C6FFF6
:101C2000FFF758FB002008BD003C0240034A116842
:101C3000034B1B780B441360704700BF0C0D002052
:101C400004000020014B1868704700BF0C0D0020F5
:101C5000002800F0A18038B5044690F82030D3B1B8
:101C60002268136843F001031360FFF7EBFF05469A
:101C700023685A6812F0010F10D1FFF7E3FF401BF1
:101C80000A28F5D9636A43F400336362052384F8B4
:101C90002030012038BDFEF77BFFE1E71A6822F013
:101CA00002021A60FFF7CEFF054623685A6812F059
:101CB000020F0DD0FFF7C6FF401B0A28F5D9636A53
:101CC00043F400336362052384F820300120E1E708
:101CD000227E012A3DD01A6822F080021A60637EBB
:101CE000012B3BD02268136823F040031360A37ECE
:101CF000012B39D02268136823F020031360E37EA0
:101D0000012B37D02268136843F010031360237F40
:101D1000012B35D02268136823F008031360637F1A
:101D2000012B33D02268136823F004031360A368E7
:101D3000E268134322691343626913436268013AFC
:101D400021681343CB6100206062012384F82030B6
:101D5000A0E71A6842F080021A60C0E722681368A0
:101D600043F040031360C2E72268136843F0200386
:101D70001360C4E72268136823F010031360C6E7FA
:101D80002268136843F008031360C8E722681368E9
:101D900043F004031360CAE70120704790F8203035
:101DA000013BDBB2012B05D9436A43F48023436234
:101DB0000120704730B5464BD3F8002242F00102B3
:101DC000C3F80022D3F8002222F47C52C3F8002288
:101DD000D3F80022486A42EA0022C3F800224A6986
:101DE00002F01F02012000FA02F2D3F81C026FEA8F
:101DF000020C20EA0200C3F81C02CB69C3B9344BC1
:101E0000D3F80C020CEA0000C3F80C028C88486975
:101E1000CD6844EA0544483043F830408C6808886F
:101E200040EA04404C6904F1480E03EBCE035860CD
:101E3000CB69012B1ED08B69002B33D12448D0F8FD
:101E400004320CEA0303C0F804320B698BBB204850
:101E5000D0F814320CEA0303C0F814320B6A012BD9
:101E60002ED01B4AD2F8003223F00103C2F8003210
:101E7000002030BD164BD3F80C021043C3F80C02FF
:101E80008C8848690D6844EA0544483043F830407E
:101E900088894C698D6840EA0540483403EBC403E7
:101EA0005860C8E70A48D0F804321343C0F8043237
:101EB000CBE70748D0F814321343C0F81432CDE70B
:101EC0000349D1F81C321343C1F81C32C9E700BFE3
:101ED0000064004070B5044690F82050EDB2012D2A
:101EE00006D0436A43F4002343620125284670BDAF
:101EF000022380F820300268136823F00103136086
:101F0000FFF7A0FE064623685B6813F0010F0CD0B4
:101F1000FFF798FE831B0A2BF5D9636A43F400335D
:101F20006362052384F82030E0E700256562DDE781
:101F300030B590F820C00468A4680CF1FF3C5FFA4B
:101F40008CFCBCF1010F62D814F0E05F59D0C4F3EF
:101F5000016C012404FA0CF41C608B68002B3DD149
:101F60000D68CB68046843EA45550CF118031B0162
:101F7000E55003680C690CF1180E03EB0E135C605E
:101F80000B7D012B35D0D17993791B0443EA016392
:101F9000517943EA012314790168234301EB0C11C1
:101FA000C1F88C31D17893781B0443EA01635178EE
:101FB00043EA0123117802680B4302EB0C12C2F8CA
:101FC000883102680CF1180C4FEA0C1C52F80C30E6
:101FD00043F0010342F80C3000201DE04C6843EA56
:101FE000C403CC6823430CF11804240105682B5169
:101FF000BFE7036803EB0E13596841F48071596021
:10200000C1E7436A43F400134362012004E0436ADA
:1020100043F480234362012030BD90F82030013B1F
:10202000DBB2012B01D9002070470368986810F0DB
:10203000806000D001209A6812F0006F00D001305B
:102040009B6813F0805FEFD00130704790F820C09C
:102050000CF1FF3C5FFA8CFCBCF1010F00F2A58093
:1020600030B451B90468E46814F0030F10D1436A26
:1020700043F40013436201207EE00468246914F0F5
:10208000030F05D1436A43F400134362012073E058
:10209000056801F11B0424012C5904F00404946028
:1020A000002C6BD1056801F11B0424012C59640D2F
:1020B0001460046801F11B0C4FEA0C1C54F80C402E
:1020C00004F00204D4600468A444DCF8045015F061
:1020D000080F5BD008241461046801F11B0C04EBA9
:1020E0000C146468C4F307249461046804EB0C14B2
:1020F0006468240C5461026802EB0112D2F8B82122
:102100001A70026802EB0112D2F8B821C2F307225A
:102110005A70026802EB0112D2F8B821C2F30742EA
:102120009A70026802EB0112D2F8B821120EDA702E
:10213000026802EB0112D2F8BC211A71026802EBAC
:102140000112D2F8BC21C2F307225A71026802EBD5
:102150000112D2F8BC21C2F307429A71026802EB65
:102160000112D2F8BC21120EDA71C1B90268D3682B
:1021700043F02003D360002030BC7047056801F1B4
:102180001B0424012C59E408546092E701F11B055B
:1021900004EB0514646804F00F0414619CE7026802
:1021A000136943F020031361E5E7436A43F4802396
:1021B00043620120704790F82030013BDBB2012BD5
:1021C00001D90020704721B90368D86800F00300E6
:1021D00070470368186900F00300704790F82030DA
:1021E000013BDBB2012B05D9436A43F480234362F0
:1021F00001207047026853690B4353610020704708
:102200007047704770477047704770477047704716
:102210007047704770472DE9F84F054603685C69C1
:10222000D3F804809F68D3F80CA0D3F81090D3F8AB
:1022300018B014F001063BD017F0010616D00122A9
:102240009A6017F0020F08D117F0040F0CD117F0A5
:10225000080606D04FF4805608E0FFF7D1FF0026AD
:1022600004E0FFF7D0FF01E04FF4006617F4807F31
:102270000DD02B684FF480729A6017F4007F40F005
:10228000968017F4806F00F0968046F4005617F49D
:10229000803F0DD02B684FF480329A6017F4003FD6
:1022A00040F0938017F4802F00F0938046F40046AE
:1022B00014F0080F07D01AF0100F04D046F400767F
:1022C0002B681022DA6014F0040F03D01AF0080F04
:1022D00040F0898014F0020F05D02B68DB6813F002
:1022E000030F40F0878014F0400F07D019F0100F53
:1022F00004D046F480662B6810221A6114F0200F77
:1023000002D019F0080F79D114F0100F04D02B6807
:102310001B6913F0030F78D114F4003F02D018F0BA
:10232000100F76D114F4803F02D018F0080F77D147
:1023300014F4004F37D018F0040F31D014F4807F1C
:1023400004D01BF0010F01D046F0010614F4007F09
:1023500004D01BF0020F01D046F0020614F4806F87
:1023600004D01BF0040F01D046F0040614F4006FF3
:1023700016D01BF0700B13D0BBF1400F66D056D8AF
:10238000BBF1200F5CD0BBF1300F5CD0BBF1100F64
:1023900001D146F008062A68936923F0700393611F
:1023A0002B6804225A60002E56D1BDE8F88F2846CB
:1023B000FFF727FF6BE717F4006F02D046F4804663
:1023C00065E72846FFF720FF61E72846FFF71AFF79
:1023D0006EE717F4002F02D046F4803668E72846EF
:1023E000FFF713FF64E72B680822DA602846FFF73F
:1023F0000DFF6FE7284605F0C7F874E72B68082241
:102400001A612846FFF703FF7EE7284605F0C1F86A
:1024100082E72B6810225A602846FFF7F9FE81E711
:102420002B6808225A602846FFF7F3FE80E7BBF1CD
:10243000500F0ED0BBF1600FADD146F48076AAE705
:1024400046F01006A7E746F02006A4E746F040064F
:10245000A1E746F080069EE76B6A33436B6228462D
:10246000FFF7D8FEA1E70000002807DB00F01F02FD
:10247000400901239340024A42F82030704700BFD0
:1024800000E100E0002808DB0901C9B200F160406A
:1024900000F5614080F80013704700F00F0009015B
:1024A000C9B2014B1954704714ED00E000B500F0BB
:1024B0000700C0F1070CBCF1040F28BF4FF0040C5B
:1024C000031D062B0FD9C31E4FF0FF3E0EFA0CF072
:1024D00021EA000199400EFA03FE22EA0E0241EAC7
:1024E00002005DF804FB0023EEE70000074AD36812
:1024F00023F4E0631B041B0C000200F4E0600343C0
:1025000043F0BF6343F40033D360704700ED00E055
:1025100010B50446054BD868C0F30220FFF7C6FF8C
:1025200001462046FFF7AEFF10BD00BF00ED00E002
:1025300008B5FFF799FF08BD0138B0F1807F0BD2D5
:102540004FF0E0235861054AF02182F82310002063
:10255000986107221A6170470120704700ED00E082
:1025600030B405682C6824F480242C60046863600F
:102570008368402B05D0036899600368DA6030BC3B
:10258000704703689A600368D960F8E710B403687D
:10259000D9B210390A4AA2FB01421209094CA25CC5
:1025A000C2655F2907D96FF3090304338365806D22
:1025B0005DF8044B70476FF309038365F7E700BFCD
:1025C000ABAAAAAA8C960008836A826992B9012BE9
:1025D0000AD0022B02D00BB100207047C36A13F05F
:1025E000807F28D100207047C36AB3F1C07F24D018
:1025F00000207047B2F5005F09D0022B25D9032BCC
:1026000025D1C36A13F0807F23D100207047032BAC
:1026100003D8DFE803F01404140A00207047C36AEB
:1026200013F0807F0DD100207047C36AB3F1C07FE3
:1026300009D0002070470120704701207047012019
:10264000704701207047012070470120704700202B
:10265000704701207047000070B50446FFF7F2FA9A
:10266000002C5BD00546022384F83530002384F823
:1026700034302268136823F00103136023681A685A
:1026800012F0010F0AD0FFF7DDFA431B052BF5D935
:1026900020236365032084F8350070BD1A68204943
:1026A00011406268A0680243E06802432069024367
:1026B00060690243A0690243E0690243206A024361
:1026C0000A43616A04291ED01A602668756925F0DC
:1026D0000705636A1D43042B07D1A36A1D43E36A00
:1026E0001BB12046FFF770FF90B975612046FFF7D8
:1026F0004DFFE26D3F23934083600020606501231E
:1027000084F83530C9E7E16A206B01430A43DBE70F
:1027100040236365012084F83500BEE70120BCE753
:102720003F8010F038B50446856D90F834000128DC
:102730002BD0012084F8340094F83500C0B2012871
:1027400004D0002384F83430022038BD022084F8FD
:102750003500002060652046FFF702FFE26D3F2351
:102760009340AB602268136843F016031360236C38
:1027700023B12268136843F00803136022681368CA
:1027800043F0010313600020DFE70220DDE770B5AE
:102790000446866DFFF756FA94F83530DBB2022B0B
:1027A00006D080236365002384F83430012070BD97
:1027B00005462268136823F01603136022685369E4
:1027C00023F080035361236CE3B12268136823F084
:1027D000080313602268136823F001031360236861
:1027E0001B6813F0010F11D0FFF72CFA431B052BC8
:1027F000F5D920236365032084F83500002384F88D
:102800003430D4E7A36C002BDFD1E3E7E26D3F2344
:102810009340B360012384F83530002084F83400FD
:10282000C5E790F83530DBB2022B03D08023436537
:1028300001207047052380F835300268136823F0C3
:102840000103136000207047F0B583B004460023F5
:102850000193724B1D68724BA3FB0535AD0A876D62
:102860003E68C26D08239340334210D003681A6853
:1028700012F0040F0BD01A6822F004021A60C26D25
:1028800008239340BB60436D43F001034365E26D51
:1028900001239340334209D02268526912F0800F1D
:1028A00004D0BB60636D43F002036365E26D0423F3
:1028B0009340334209D02268126812F0020F04D00C
:1028C000BB60636D43F004036365E26D10239340C6
:1028D000334224D02268126812F0080F1FD0BB6068
:1028E00023681A6812F4802F0DD01B6813F4002F90
:1028F00004D1236C9BB12046984710E0A36C73B1C0
:10290000204698470BE01A6812F4807F03D11A68BA
:1029100022F008021A60236C0BB120469847E26D42
:1029200020239340334255D02268126812F0100FD2
:1029300050D0BB6094F83530DBB2052B0ED0236845
:102940001A6812F4802F33D01B6813F4002F2AD199
:10295000636C002B3ED0204698473BE0226813680A
:1029600023F0160313602268536923F08003536138
:10297000236CA3B12268136823F008031360E26D8F
:102980003F239340BB60012384F83530002384F853
:102990003430236D002B3FD0204698473CE0A36C99
:1029A000002BE7D1EBE7E36BA3B12046984711E09A
:1029B0001A6812F4807F09D11A6822F010021A6096
:1029C000012384F83530002384F83430E36B0BB1F5
:1029D00020469847636DFBB1636D13F0010F17D06C
:1029E000052384F835302268136823F0010313604F
:1029F000019B01330193AB4204D823681B6813F099
:102A0000010FF5D1012384F83530002384F83430E8
:102A1000E36C0BB12046984703B0F0BD00000020E6
:102A2000B5814E1B00230F2B00F2E98070B582B0F8
:102A300065E085684FEA430E032404FA0EF425EAA4
:102A40000405CC6804FA0EF42C438460446824EA3C
:102A500002044A68C2F300129A40224342605CE0DA
:102A6000DC08083450F8242003F00705AD004FF0CF
:102A70000F0E0EFA05FE22EA0E0E0A69AA4042EA7D
:102A80000E0240F824205CE0072200E0002202FA57
:102A90000EF22A4302345A4D45F82420594A9468CC
:102AA0006FEA0C0224EA0C054E6816F4801F01D070
:102AB0004CEA0405534CA560E46802EA04054E683C
:102AC00016F4001F01D04CEA04054E4CE560646822
:102AD00002EA04054E6816F4003F01D04CEA0405F2
:102AE000484C6560246822404D6815F4803F01D051
:102AF0004CEA0402434C226001330F2B7DD80122A3
:102B00009A400C6804EA020C32EA0404F4D14C68DE
:102B100004F00304013C012C8BD94A6802F0030243
:102B2000032A09D0C4685D000322AA4024EA0204F3
:102B30008A68AA402243C2604A6802F00302022A5D
:102B40008ED004684FEA430E032202FA0EF224EA02
:102B500002044A6802F0030202FA0EF22243026003
:102B60004A6812F4403FC7D000220192264A546CB2
:102B700044F480445464526C02F480420192019AFD
:102B80009C08A51C1E4A52F8255003F0030E4FEA7C
:102B90008E0E0F2202FA0EF225EA02051B4A90421F
:102BA0003FF474AF02F5806290421AD002F5806261
:102BB000904218D002F58062904216D002F58062F1
:102BC000904214D002F58062904212D002F58062E9
:102BD000904210D002F5806290423FF455AF082237
:102BE00055E7012253E7022251E703224FE704226F
:102BF0004DE705224BE7062249E702B070BD70475A
:102C000000380140003C0140003802400000024012
:102C10000AB1816170470904816170477047000003
:102C200008B5054B5B69034200D108BD024B5861F2
:102C3000FFF7F4FFF9E700BF003C0140002800F077
:102C4000CC8070B5044690F83D30002B77D024231B
:102C500084F83D302268136823F001031360226872
:102C6000136843F4004313602268136823F400439D
:102C7000136000F0C7FB62685A4B9A4264D85A4B03
:102C800098428CBF00230123002B40F0A8805749B5
:102C9000A1FB00318B0C25686A6822F03F0242EAF2
:102CA00091426A6021680A6A22F03F0266684D4DCF
:102CB000AE424FD8013313430B622168CA6922F434
:102CC0004F4222F0FF026568464B9D424CD8431E9E
:102CD0006D00B3FBF5F3013340F6FC70034278D08E
:102CE000C3F30B031A43CA6121680B6823F0C003C6
:102CF000E269206A024313430B6021688B6823F466
:102D0000034323F0FF032269E068024313438B600F
:102D10002168CB6823F0FF036269A0690243134373
:102D2000CB602268136843F0010313600020206425
:102D3000202384F83D30206384F83E0070BD80F885
:102D40003C30FEF73BF982E7294B98428CBF0023C9
:102D5000012399E74FF4967505FB03F3254DA5FB79
:102D600003539B090133A6E7A668BEB9431E05EBD2
:102D7000450CB3FBFCF30133C3F30B03B3FA83F34A
:102D80005B0943BBC6B9431E05EB4505B3FBF5F331
:102D90000133C3F30B0343F40043A3E7431E05EBE6
:102DA000850C0CEB8C0CB3FBFCF30133C3F30B036E
:102DB000B3FA83F35B09E4E7431E05EB850505EBF6
:102DC0008505B3FBF5F30133C3F30B0343F4404331
:102DD00088E7042386E7012384E701207047012068
:102DE000ACE700BFA08601007F841E0083DE1B438A
:102DF000FF083D00D34D6210002800F0E08170B55F
:102E000082B00446036813F0010F3BD09F4B9B68D0
:102E100003F00C03042B2CD09C4B9B6803F00C0399
:102E2000082B21D06368B3F5803F4FD0B3F5A02FB6
:102E300052D0964B1A6822F480321A601A6822F433
:102E400080221A606368002B50D0FEF7FBFE054617
:102E50008E4B1B6813F4003F14D1FEF7F3FE401BAA
:102E60006428F5D90320B1E1884B5B6813F4800F27
:102E7000D8D0864B1B6813F4003F03D06368002B47
:102E800000F09F81236813F0020F54D07F4B9B68A2
:102E900013F00C0F3ED07D4B9B6803F00C03082B06
:102EA00033D0E368002B68D0794B01221A60FEF71B
:102EB000C9FE0546754B1B6813F0020F54D1FEF78F
:102EC000C1FE401B0228F5D903207FE16F4A136839
:102ED00043F480331360B5E76C4B1A6842F48022E8
:102EE0001A601A6842F480321A60ABE7FEF7AAFE55
:102EF0000546664B1B6813F4003FC3D0FEF7A2FEE5
:102F0000401B6428F5D9032060E1604B5B6813F433
:102F1000800FC6D15D4B1B6813F0020F03D0E3682E
:102F2000012B40F05081594A136823F0F8032169BE
:102F300043EAC1031360236813F0080F42D06369AA
:102F40006BB3534B0122C3F8802EFEF77BFE054680
:102F50004E4B5B6F13F0020F34D1FEF773FE401B34
:102F60000228F5D9032031E1484A136823F0F80319
:102F7000216943EAC1031360DDE7454B00221A6073
:102F8000FEF760FE0546414B1B6813F0020FD2D0DE
:102F9000FEF758FE401B0228F5D9032016E13C4BF2
:102FA0000022C3F8802EFEF74DFE0546374B5B6FBF
:102FB00013F0020F06D0FEF745FE401B0228F5D99C
:102FC000032003E1236813F0040F77D02F4B1B6C11
:102FD00013F0805F33D1002301932C4B1A6C42F025
:102FE00080521A641B6C03F080530193019B0125EE
:102FF000284B1B6813F4807F23D0A368012B34D0A7
:10300000052B38D0214B1A6F22F001021A671A6F74
:1030100022F004021A67A368002B3DD0FEF712FECF
:1030200006461A4B1B6F13F0020F46D1FEF70AFE3D
:10303000801B41F288339842F3D90320C6E0002573
:10304000D6E7144A136843F480731360FEF7FAFD61
:103050000646104B1B6813F4807FCED1FEF7F2FDBD
:10306000801B0228F5D90320B0E0084A136F43F013
:1030700001031367CFE7054B1A6F42F004021A678A
:103080001A6F42F001021A67C5E700BF003802401C
:103090000000474200700040FEF7D4FD0646524B48
:1030A0001B6F13F0020F08D0FEF7CCFD801B41F21E
:1030B00088339842F3D9032088E0EDB9A369002B47
:1030C00000F08380484A926802F00C02082A51D02E
:1030D000022B17D0454B00221A66FEF7B3FD0446BB
:1030E000414B1B6813F0007F42D0FEF7ABFD001B85
:1030F0000228F5D9032069E03B4A136C23F0805382
:103100001364DBE7394B00221A66FEF79BFD054688
:10311000354B1B6813F0007F06D0FEF793FD401B74
:103120000228F5D9032051E0E369226A1343626A59
:1031300043EA8213A26A5208013A43EA0243E26A6E
:1031400043EA0263284A5360284B01221A66FEF7BD
:1031500079FD0446244B1B6813F0007F06D1FEF76F
:1031600071FD001B0228F5D903202FE000202DE07F
:1031700000202BE0012B2BD01B4B5B6803F480015C
:10318000E269914226D103F03F02216A8A4223D1AB
:10319000616A47F6C0721A40B2EB811F1ED103F478
:1031A0004031A26A5208013AB1EB024F18D103F044
:1031B0007063E26AB3EB026F14D1002006E00120D5
:1031C0007047012002E0012000E0002002B070BD45
:1031D0000120FBE70120F9E70120F7E70120F5E7EF
:1031E0000120F3E70120F1E70038024000004742E8
:1031F00008B5264B9B6803F00C03042B41D0082B29
:1032000041D1224B5A6802F03F025B6813F4800FF1
:1032100012D01E4B5968C1F388111D480023A1FB31
:103220000001FDF73BFC194B5B68C3F3014301331D
:103230005B00B0FBF3F008BD144B5868C0F3881076
:103240004FEA401CBCEB000C6EEB0E0E4FEA8E13E7
:1032500043EA9C634FEA8C11B1EB0C0163EB0E0364
:10326000DB0043EA5173C90011EB000C43F100038A
:10327000990200234FEA8C2041EA9C51FDF70EFC95
:10328000D1E70348D7E70348D5E700BF003802403D
:10329000001BB7000024F400002800F09B8070B5EC
:1032A0000D4604464F4B1B6803F007038B4208D2C0
:1032B000CBB24C4A1370136803F007038B4240F003
:1032C0008B80236813F0020F17D013F0040F04D083
:1032D000454A936843F4E0539360236813F0080F62
:1032E00004D0414A936843F4604393603E4A936834
:1032F00023F0F003A1680B439360236813F0010FE0
:1033000032D06368012B21D09A1E012A25D9364A72
:10331000126812F0020F61D033498A6822F003026A
:1033200013438B60FEF78EFC06462F4B9B6803F021
:103330000C036268B3EB820F16D0FEF783FC801B90
:1033400041F288339842F0D9032042E0264A1268BD
:1033500012F4003FE0D101203BE0234A126812F052
:10336000007FD9D1012034E01E4B1B6803F0070316
:10337000AB4207D9EAB21B4B1A701B6803F0070374
:10338000AB422DD1236813F0040F06D0164A936880
:1033900023F4E053E1680B439360236813F0080FB4
:1033A00007D0114A936823F46043216943EAC103BB
:1033B0009360FFF71DFF0C4B9B68C3F303130B4A8D
:1033C000D35CD8400A4B18600A4B1868FEF7EEFB36
:1033D000002070BD012070470120FAE70120F8E7C6
:1033E0000120F6E7003C0240003802407C960008CD
:1033F0000000002008000020014B1868704700BF43
:103400000000002008B5FFF7F7FF044B9B68C3F3EB
:103410008223034AD35CD84008BD00BF0038024075
:103420007496000808B5FFF7E7FF044B9B68C3F3E9
:103430004233034AD35CD84008BD00BF0038024085
:103440007496000800285AD010B50446436A33B970
:103450004368B3F5827F05D00023C36102E00023F7
:10346000036143610023A36294F85130002B40D0E4
:10347000022384F851302268136823F0400313605C
:10348000636803F48273A26802F404421343E2689F
:1034900002F400621343226902F0020213436269DC
:1034A00002F001021343A26902F400721343E269BD
:1034B00002F038021343226A02F080021343A26A28
:1034C00002F40052216813430B60638B03F0040382
:1034D000626A02F01002216813434B602268D369CC
:1034E00023F40063D36100206065012384F8513028
:1034F00010BD84F850302046FDF754FEB8E7012097
:103500007047000030B4036A026A22F001020262CE
:103510004268846924F0730C0C6844EA0C0423F0BC
:10352000020C8B6843EA0C03114DA84203D005F549
:103530008065A84205D123F00803CD682B4323F012
:1035400004030B4DA84203D005F58065A84207D1BE
:1035500022F440724D6945EA020C8A6942EA0C0283
:10356000426084614A684263036230BC704700BFB6
:103570000000014030B4036A026A22F480720262E1
:103580004268C46924F0730C0C6844EA0C0523F407
:1035900000738C6843EA0423114CA04203D004F565
:1035A0008064A04206D123F40063CC6843EA04237C
:1035B00023F480630A4CA04203D004F58064A04247
:1035C00007D122F440524C6942EA04128C6942EA63
:1035D00004124260C5614A68C263036230BC70472E
:1035E0000000014030B4036A026A22F48052026291
:1035F0004468C26922F4E6420D6842EA052223F4D7
:1036000000538D6843EA0533094DA84203D005F500
:103610008065A84204D124F480444D6944EA8514AD
:103620004460C2614A680264036230BC704700BFF4
:103630000000014010B4036A046A24F0010404622B
:10364000846924F0F00C4CEA021223F00A030B43C5
:10365000826103625DF8044B704710B4036A046A28
:1036600024F010040462846924F4704C4CEA0232A1
:1036700023F0A00343EA0113826103625DF8044B67
:103680007047836823F070030B4343F007038360A4
:10369000704770470368344A904212D0B0F1804FAF
:1036A0000FD0A2F57C4290420BD002F5806290428E
:1036B00007D002F58062904203D002F57842904232
:1036C00003D123F070034A681343274A90422AD05B
:1036D000B0F1804F27D0A2F57C42904223D002F572
:1036E000806290421FD002F5806290421BD002F5AA
:1036F0007842904217D002F57052904213D002F5F2
:10370000806290420FD002F5806290420BD0A2F509
:103710009832904207D002F58062904203D002F5C1
:103720008062904203D123F44073CA68134323F0AC
:1037300080034A69134303608B68C3620B6883622A
:10374000094B984203D003F58063984201D10B697D
:10375000036301234361036913F0010F03D003697D
:1037600023F00103036170470000014040B310B52E
:10377000044690F83D30F3B1022384F83D302146F1
:1037800051F8040BFFF786FF012384F8463084F8D4
:103790003E3084F83F3084F8403084F8413084F87B
:1037A000423084F8433084F8443084F8453084F85B
:1037B0003D30002010BD80F83C30FDF775FEDBE7A2
:1037C0000120704740B310B5044690F83D30F3B186
:1037D000022384F83D30214651F8040BFFF75AFFCD
:1037E000012384F8463084F83E3084F83F3084F872
:1037F000403084F8413084F8423084F8433084F813
:10380000443084F8453084F83D30002010BD80F805
:103810003C30FFF73EFFDBE70120704730B4036A1E
:10382000026A22F0100202624468826922F4E642CF
:103830000D6842EA052223F020038D6843EA051350
:10384000114DA84203D005F58065A84206D123F0AA
:103850008003CD6843EA051323F040030A4DA842D4
:1038600003D005F58065A84207D124F440644D6972
:1038700044EA85048D6944EA8504446082614A68AB
:103880008263036230BC70470000014038B590F895
:103890003C30012B66D004460D46012380F83C30B5
:1038A0000C2A5AD8DFE802F0075959591B595959BF
:1038B0003059595944000068FFF724FE2268936983
:1038C00043F0080393612268936923F00403936132
:1038D0002268936929690B43936100203EE00068E8
:1038E000FFF79CFF2268936943F4006393612268A9
:1038F000936923F48063936122689369296943EA99
:1039000001239361002029E00068FFF733FE22685D
:10391000D36943F00803D3612268D36923F0040319
:10392000D3612268D36929690B43D361002015E074
:103930000068FFF757FE2268D36943F40063D36140
:103940002268D36923F48063D3612268D36929692B
:1039500043EA0123D361002000E00120002384F822
:103960003C3038BD0220FCE710B4846824F47F4C5E
:1039700042EA03220A4342EA0C0282605DF8044BE9
:10398000704790F83C30012B78D010B504460123E5
:1039900080F83C30022380F83D300268936823F4BD
:1039A0007F4323F0770393600B68602B4CD023D8C0
:1039B000402B54D011D8202B03D00AD80BB1102B98
:1039C00005D119462068FFF75CFE002028E00120A1
:1039D00026E0302BF5D0012022E0502B0AD1CA6816
:1039E00049680068FFF726FE50212068FFF749FE6E
:1039F000002015E0012013E0B3F5805F3AD0B3F565
:103A0000005F14D0702B37D1CB684A688968006892
:103A1000FFF7AAFF2268936843F0770393600020C2
:103A2000012384F83D30002384F83C3010BDCB687E
:103A30004A6889680068FFF797FF2268936843F433
:103A4000804393600020EBE7CA6849680068FFF78D
:103A500004FE60212068FFF714FE0020E0E7CA683A
:103A600049680068FFF7E6FD40212068FFF709FE7E
:103A70000020D5E70020D3E70120D1E702207047DE
:103A800001F01F014FF0010C0CFA01FC036A23EA5C
:103A90000C030362036A8A40134303627047000009
:103AA00010B504460846002942D194F83E30DBB2F6
:103AB000013B18BF0123002B6ED1002851D10223F6
:103AC00084F83E30012201462068FFF7D9FF2368C1
:103AD000334A934203D002F58062934203D15A6C79
:103AE00042F400425A6423682D4A934249D0B3F10C
:103AF000804F46D0A2F57C42934242D002F58062CC
:103B000093423ED002F5806293423AD002F5784269
:103B1000934236D002F57052934232D0A2F59432DD
:103B200093422ED01A6842F001021A60002032E05F
:103B3000042908D008290DD094F84130DBB2013BAC
:103B400018BF0123B7E794F83F30DBB2013B18BF41
:103B50000123B0E794F84030DBB2013B18BF0123EA
:103B6000A9E7042805D0082807D0022384F84130AB
:103B7000A8E7022384F83F30A4E7022384F840300A
:103B8000A0E79A6802F00702062A07D01A6842F0F6
:103B900001021A60002010BD0120FCE70020FAE7B6
:103BA0000000014090F83C20012A3DD010B40346AB
:103BB000012280F83C20022280F83D2002685068F3
:103BC000946820F0700C086840EA0C0050601A6895
:103BD000164882421AD0B2F1804F17D0A0F57C402F
:103BE000824213D000F5806082420FD000F58060E1
:103BF00082420BD000F57840824207D000F5705029
:103C0000824203D0A0F59430824204D124F0800493
:103C1000496821439160012283F83D20002083F808
:103C20003C005DF8044B70470220704700000140E3
:103C3000026802F10C0353E8003F23F0C0030C328A
:103C400042E800310029F3D1202380F84130704749
:103C5000026802F10C0353E8003F23F490730C3226
:103C600042E800310029F3D1026802F1140353E85D
:103C7000003F23F00103143242E800310029F3D160
:103C8000036B012B05D0202380F84230002303630F
:103C90007047026802F10C0353E8003F23F0100361
:103CA0000C3242E800310029F3D1ECE790F84130C2
:103CB000DBB2212B01D0022070478368B3F5805F0F
:103CC00017D0036A5A1C02621A7803685A60C38CC0
:103CD0009BB2013B9BB2C3844BB90268D36823F00B
:103CE0008003D3600268D36843F04003D3600020B0
:103CF00070470369002BE4D1036A1B880268C3F391
:103D000008035360036A02330362E0E710B5044618
:103D10000268136923F44053C1680B43136183683D
:103D200002691A4343691A43C3691A430168CB689D
:103D300023F4164323F00C031343CB60026853694A
:103D400023F4407381690B4353610368314A934202
:103D500006D002F58062934202D0FFF753FB01E0E8
:103D6000FFF760FBE369B3F5004F29D0002103188A
:103D700049411B1841F10001C90041EA5371DB00C0
:103D8000181863684FEA83024FEA937341F1000108
:103D9000FCF784FE204AA2FB00314909642303FB9F
:103DA00011031B013233A2FB03235B0903F0F00272
:103DB00002EB011203F00F03216813448B6010BD66
:103DC0000023021843EB0301121841F10001C9005E
:103DD00041EA5271D200101841F100016268921854
:103DE0005B41FCF75BFE0C4AA2FB003149096423EE
:103DF00003FB1103DB003233A2FB03235B095A00F0
:103E000002F4F87202EB011203F007032168134475
:103E10008B60D4E7001001401F85EB5160B310B5F3
:103E2000044690F8413013B3242384F841302268CB
:103E3000D36823F40053D3602046FFF767FF22685E
:103E4000136923F4904313612268536923F02A0312
:103E500053612268D36843F40053D3600020606448
:103E6000202384F8413084F84230606310BD80F82C
:103E70004030FDF715FDD7E70120704738B51346F0
:103E800090F84120D2B2202A2FD1044600292ED00A
:103E90000BB9012038BD01628384C38400224264CF
:103EA000212084F84100A06B124DC563A06B124D18
:103EB0000564A06B114DC564A06B026522680432D5
:103EC000A06BFEF72FFC23686FF040021A60226897
:103ED00002F1140353E8003F43F08003143242E838
:103EE00000310029F3D10020D4E70220D2E70120DD
:103EF000D0E700BF033F00086B3F0008793F000890
:103F0000704708B50346806B1B681B6813F4807FFD
:103F10001AD10023C384026802F1140353E8003F5E
:103F200023F08003143242E800310029F3D1026803
:103F300002F10C0353E8003F43F040030C3242E827
:103F400000310029F3D108BDFFF7DAFFFBE708B520
:103F50000168CA6822F04002CA60202280F841202D
:103F6000FFF7CEFF002008BD704708B5806BFFF754
:103F7000FBFF08BD7047704710B5846B23685A6912
:103F800094F84130DBB2212B10D023685A6902F03B
:103F9000400294F84230DBB2222B11D0636C43F024
:103FA00010036364204603F05BFD10BD02F0800245
:103FB000002AEAD00023E3842046FFF739FEE4E735
:103FC000002AEBD00023E3852046FFF741FEE5E71A
:103FD00008B5806B0023C385C38403F041FD08BD91
:103FE00090F84230DBB2222B69D18368B3F5805F51
:103FF0004FD0826AB3F5805F04D0002B56D103699D
:10400000002B53D103685B681370836A01338362AA
:10401000C38D9BB2013B9BB2C385002B51D100B530
:1040200083B00268D36823F02003D3600268D368AA
:1040300023F48073D3600268536923F00103536152
:10404000202380F8423000234363036B012B33D1DC
:1040500000230363026802F10C0353E8003F23F0DE
:1040600010030C3242E800310029F3D103681A68CA
:1040700012F0100F06D0002201921A6801925B68BC
:104080000193019B818D03F0B5FC002003B05DF826
:1040900004FB0269002AACD1826A03685B68C3F33F
:1040A00008031380836A02338362B1E703685B68A5
:1040B00003F07F031370A8E7FFF75CFFE5E702203A
:1040C000704700207047000010B582B004460268B7
:1040D0001368D068516913F00F0F09D113F0200F46
:1040E0000CD010F0200F09D02046FFF779FF16E022
:1040F00011F0010115D110F4907F12D1216B01292B
:1041000079D013F0800F03D010F0800F40F01481AD
:1041100013F0400F03D010F0400F40F0118102B0B7
:1041200010BD13F0010F06D010F4807F03D0626C35
:1041300042F00102626413F0040F04D019B1626C02
:1041400042F00202626413F0020F04D019B1626CF3
:1041500042F00402626413F0080F07D010F0200F41
:1041600000D119B1626C42F008026264626C002AEC
:10417000D5D013F0200F02D010F0200F29D12368E2
:104180005B6903F04003626C12F0080F00D163B367
:104190002046FFF75DFD23685B6913F0400F20D0D8
:1041A000226802F1140353E8003F23F04003143265
:1041B00042E800310029F3D1E36B73B1624A1A651A
:1041C000E06BFEF72EFB0028A9D0E06B036D98474B
:1041D000A5E72046FFF704FFD1E7204603F040FCA7
:1041E0009DE7204603F03CFC99E7204603F038FCAD
:1041F0000023636493E713F0100F82D010F0100FC8
:104200003FF47FAF00230193136801935368019338
:10421000019B536913F0400F52D0E26B13685B6847
:104220009BB2002B3FF47BAFA18D99427FF677AF15
:10423000E385D369B3F5807F37D0226802F10C03A0
:1042400053E8003F23F480730C3242E80031002928
:10425000F3D1226802F1140353E8003F23F0010375
:10426000143242E800310029F3D1226802F114032C
:1042700053E8003F23F04003143242E800310029A4
:10428000F3D1202384F8423000232363226802F113
:104290000C0353E8003F23F010030C3242E80031D6
:1042A0000029F3D1E06BFEF772FA02236363A18D5C
:1042B000E38D9BB2C91A89B2204603F09BFB2EE71F
:1042C000A18DE38D9BB2C91A89B2E38D9BB2002BFD
:1042D0003FF425AF00293FF422AF226802F10C031E
:1042E00053E8003F23F490730C3242E8003000287A
:1042F000F3D1226802F1140353E8003F23F00103D5
:10430000143242E800300028F3D1202384F84230F0
:1043100000232363226802F10C0353E8003F23F0DB
:1043200010030C3242E800300028F3D1022363630B
:10433000204603F05FFBF2E62046FFF7B7FCEEE60F
:104340002046FFF704FEEAE6D13F000808B5806B7F
:1043500001234363036B012B02D0FFF70CFE08BD62
:10436000818D490803F046FBF9E708B50346806BE9
:104370001B681B6813F4807F2BD10023C385026860
:1043800002F10C0353E8003F23F480730C3242E83F
:1043900000310029F3D1026802F1140353E8003F11
:1043A00023F00103143242E800310029F3D10268FE
:1043B00002F1140353E8003F23F04003143242E8B3
:1043C00000310029F3D1202380F84230036B012B08
:1043D00007D000234363036B012B0FD0FFF7CAFD07
:1043E00008BD026802F10C0353E8003F23F01003FC
:1043F0000C3242E800310029F3D1EAE7818D03F065
:10440000F9FAEDE730B583B0044613468162828540
:1044100000254564222280F84220C26B1F48D063E9
:10442000E26B1F481064E26B1E48D064E26B1565B6
:1044300020680A46011DE06BFEF774F901952368B8
:104440001A6801925B680193019B23695BB1226842
:1044500002F10C0353E8003F43F480730C3242E84E
:1044600000310029F3D1226802F1140353E8003F20
:1044700043F00103143242E800310029F3D12268ED
:1044800002F1140353E8003F43F04003143242E8C2
:1044900000310029F3D1002003B030BD6B43000888
:1044A0004D430008793F000890F84230DBB2202BE2
:1044B00029D110B582B0044639B312B9012002B037
:1044C00010BD0123036300234363FFF79BFF002814
:1044D000F5D1236B012B01D00120F0E700230193DC
:1044E00023681A6801925B680193019B226802F1BC
:1044F0000C0353E8003F43F010030C3242E8003154
:104500000029F3D1DBE7022070470120D7E7842898
:1045100001D0033070470020704708B501F0BAF8A9
:10452000002008BD2DE9F04387B00E464469C4B1B0
:104530008569B5B14768D0F80080D0F81090B0F91F
:104540000800FFF7E4FF02950194009033464A46C5
:104550004146384601F030F80590059807B0BDE8AF
:10456000F083446805680769B0F90800FFF7CFFFDA
:1045700005AB019300903346BAB22946204601F0BC
:1045800056F80128E9D00020E8E708B500B9012075
:1045900001F0E2F9002008BD00F1080343604FF08C
:1045A000FF328260C3600361002303607047002311
:1045B0000361704743684B609A688A6051609960F4
:1045C0000861036801330360704730B40D68B5F1CA
:1045D000FF3F11D000F108031C465B681A68AA422D
:1045E000FAD963684B6099608C6061600861036808
:1045F0000133036030BC70470469F2E70369416826
:1046000082688A60416851605A68824206D00022FE
:1046100002611A68013A1A601868704782685A6025
:10462000F5E7000082B0002301930D4B1B68B3F146
:10463000FF3F08D04FF0500383F31188BFF36F8F13
:10464000BFF34F8FFEE74FF0500383F31188BFF3A2
:104650006F8FBFF34F8F019B002BFCD002B07047D0
:104660000C00002008480068006880F308884FF0BC
:10467000000080F3148862B661B6BFF34F8FBFF3BA
:104680006F8F00DF00BF000008ED00E0DFF80C00D6
:10469000016841F4700101607047000088ED00E09E
:1046A0004FF0807340F8043C21F0010140F8081CF1
:1046B000054B40F80C3C40F8202C6FF0020340F80A
:1046C000243C4438704700BF254600080000000025
:1046D000074B19680868B0E8F04F80F30988BFF30A
:1046E0006F8F4FF0000080F311887047AFF30080A8
:1046F000A04A00204FF0500383F31188BFF36F8F5F
:10470000BFF34F8F0B4A136801331360012B00D0A6
:1047100070474FF0E023D3F8043D13F0FF0FF7D0BC
:104720004FF0500383F31188BFF36F8FBFF34F8FA8
:10473000FEE700BF0C000020094B1B6843B94FF097
:10474000500383F31188BFF36F8FBFF34F8FFEE7E2
:10475000013B034A13600BB983F31188704700BF14
:104760000C0000200000000000000000000000001D
:10477000EFF30980BFF36F8F154B1A681EF0100F0F
:1047800008BF20ED108A20E9F04F10602DE90900E4
:104790004FF0500080F31188BFF34F8FBFF36F8F3E
:1047A00001F000F94FF0000080F3118809BC19688E
:1047B0000868B0E8F04F1EF0100F08BFB0EC108A88
:1047C00080F30988BFF36F8F704700BFAFF300809D
:1047D000A04A002008B54FF0500383F31188BFF3BF
:1047E0006F8FBFF34F8F00F0AFFF28B14FF0E02382
:1047F0004FF08052C3F8042D002383F3118808BDC5
:104800004FF0E022002313619361054B1B680549BB
:10481000A1FB03139B09013B5361072313617047FD
:1048200000000020D34D62104FF0E023D3F8002D9C
:104830003D4B9A421CD04FF0E023D3F8002D3B4B68
:104840009A421ED030B583B0394B1A78D2B2019259
:10485000FF221A701B78DBB28DF803309DF803300D
:1048600003F05003334A1370334B07221A601BE0E6
:104870004FF0500383F31188BFF36F8FBFF34F8F57
:10488000FEE74FF0500383F31188BFF36F8FBFF340
:104890004F8FFEE7284A1368013B13609DF80330F1
:1048A0005B00DBB28DF803309DF8033013F0800F0E
:1048B000F0D1214B1B68032B08D04FF0500383F33A
:1048C0001188BFF36F8FBFF34F8FFEE71B021A4AA9
:1048D000136003F4E0631360019BDBB2144A1370AE
:1048E0004FF0E024D4F8203D43F47003C4F8203D99
:1048F000D4F8203D43F07043C4F8203DFFF780FF1B
:1049000000250E4B1D60FFF7C1FED4F8343F43F085
:104910004043C4F8343FFFF7A5FE01F043F8FFF72A
:1049200081FE284603B030BD71C20F4170C20F41F5
:1049300000E400E0140D0020100D00200C00002009
:10494000EFF305830F2B0FD9114A9B5CDBB2114AA1
:1049500012789A4208D94FF0500383F31188BFF3BD
:104960006F8FBFF34F8FFEE74FF0E023D3F80C3D7E
:1049700003F4E063084A1268934208D94FF05003E9
:1049800083F31188BFF36F8FBFF34F8FFEE770473C
:10499000F0E300E0140D0020100D0020124A12F088
:1049A000070F1ED0D11D21F00701C1F5705313442C
:1049B0000A460E480260002141601344083B23F080
:1049C00007030B48036059601960991A516013601E
:1049D000084B1960084B1960084B4FF000421A60F1
:1049E00070474FF47053E4E7380D0020300D00207D
:1049F0002C0D0020240D0020280D0020180D002073
:104A0000164B1A461B688342FBD3516802EB010C1C
:104A1000844509D0416800EB010C634509D003606F
:104A2000904219D0106070474068014451601046B0
:104A3000F0E710B40A4C2468A3420BD05B68194419
:104A4000416013681B680360904200D010605DF8FD
:104A5000044B70470460F7E7704700BF300D00203B
:104A60002C0D002038B5044600F060FE384B1B6862
:104A7000B3B1384B1B681C4250D1002C50D004F10C
:104A8000080214F0070F02D022F007020832002AB1
:104A900055D0314B1B68934253D330490C6804E026
:104AA000FFF77CFFE5E721461C466368934202D28C
:104AB0002368002BF7D1264B1B68A34243D00D6817
:104AC000083523680B6063689B1A102B10D9A01857
:104AD00010F0070F08D04FF0500383F31188BFF395
:104AE0006F8FBFF34F8FFEE743606260FFF788FF71
:104AF000626819490B689B1A0B60194909688B4257
:104B000001D217490B60134B1B68134363600023EA
:104B10002360144A13680133136002E0002500E0AB
:104B2000002500F09DFE15F0070F0ED04FF050034A
:104B300083F31188BFF36F8FBFF34F8FFEE700251C
:104B4000EFE70025EDE70025EBE7284638BD00BF7D
:104B50002C0D0020180D0020280D0020300D002005
:104B6000240D0020200D0020002834D038B5044644
:104B7000A0F1080550F8043C174A1268134208D106
:104B80004FF0500383F31188BFF36F8FBFF34F8F44
:104B9000FEE750F8081C41B14FF0500383F3118831
:104BA000BFF36F8FBFF34F8FFEE723EA020340F896
:104BB000043C00F0BBFD54F8041C084A13680B4485
:104BC00013602846FFF71CFF054A13680133136082
:104BD00000F046FE38BD7047180D0020280D00205B
:104BE0001C0D002010B50446FFF784FDA26BE36B9B
:104BF0009A4204D00024FFF79FFD204610BD0124F7
:104C0000F9E710B50446FFF775FDA36B23B901243E
:104C1000FFF792FD204610BD0024F9E770B5044669
:104C20001546866B026C5AB903681BB10020013629
:104C3000A66370BD806800F0EDFF0023A360F6E777
:104C40006DB9406803F04EFE6368226C13446360E4
:104C5000A268934219D3236863602846E7E7C068D7
:104C600003F040FEE368226C51429B1AE360226825
:104C7000934202D2A3680B44E360022D01D00020CE
:104C8000D5E726B1013E0020D1E72846CFE7002036
:104C9000CDE70346026C6AB110B50846D9681144E5
:104CA000D9609C68A14201D31968D960D96803F022
:104CB00019FE10BD704738B50546FFF71BFD95F886
:104CC000454064B201E0013C64B2002C0ADD6B6A2D
:104CD00043B105F1240000F0E5FE0028F3D000F018
:104CE00083FFF0E7FF2385F84530FFF725FDFFF749
:104CF00001FD95F8444064B201E0013C64B2002C2F
:104D00000ADD2B6943B105F1100000F0CBFE00284D
:104D1000F3D000F069FFF0E7FF2385F84430FFF798
:104D20000BFD38BD38B5E0B10D460446FFF7E2FC97
:104D30002368E26B216C01FB0230A0600020A063BD
:104D40006360013A02FB0133E360FF2384F84430DF
:104D500084F84530FDB9236963B9FFF7EDFC012004
:104D600038BD4FF0500383F31188BFF36F8FBFF34B
:104D70004F8FFEE704F1100000F094FE0028ECD005
:104D80004FF0E0234FF08052C3F8042DBFF34F8F54
:104D9000BFF36F8FE1E704F11000FFF7FDFB04F1B3
:104DA0002400FFF7F9FBD8E710B5034602980C463C
:104DB00031B90060C36304640121FFF7B3FF10BD84
:104DC0000260F7E740B94FF0500383F31188BFF357
:104DD0006F8FBFF34F8FFEE710B584B01C4684463B
:104DE00053B192B189B94FF0500383F31188BFF3E7
:104DF0006F8FBFF34F8FFEE74FF0500383F311889F
:104E0000BFF36F8FBFF34F8FFEE76AB14823039361
:104E1000039B482B13D04FF0500383F31188BFF34B
:104E20006F8FBFF34F8FFEE70029EFD04FF0500395
:104E300083F31188BFF36F8FBFF34F8FFEE7039BA0
:104E4000012384F8463000949DF818306046FFF73F
:104E5000ABFF204604B010BDF0B585B0019288B11B
:104E60000F461D460446B1B1022D20D1E36B012B44
:104E70001DD04FF0500383F31188BFF36F8FBFF342
:104E80004F8FFEE74FF0500383F31188BFF36F8F0E
:104E9000BFF34F8FFEE7036C002BE5D04FF05003BC
:104EA00083F31188BFF36F8FBFF34F8FFEE700F0DE
:104EB000A1FE064658B9019B002B48D04FF0500385
:104EC00083F31188BFF36F8FBFF34F8FFEE7002688
:104ED0003DE02A4639462046FFF7A0FE636A7BB9CB
:104EE00048B14FF0E0234FF08052C3F8042DBFF3D8
:104EF0004F8FBFF36F8FFFF71FFC012005B0F0BD90
:104F000004F1240000F0CEFD0028F4D04FF0E0239F
:104F10004FF08052C3F8042DBFF34F8FBFF36F8F54
:104F2000E9E7FFF709FC0020E8E702A800F000FE2F
:104F3000012619E0002384F8443021E0002384F89E
:104F4000453023E02046FFF7B6FE00F089FCFFF76E
:104F5000D1FBA26BE36B9A42BBD3022DB9D0019B6C
:104F6000002BDED0002EE0D0FFF7E6FB00F0DEFBEA
:104F7000FFF7C0FB94F8442052B2B2F1FF3FD9D002
:104F800094F8452052B2B2F1FF3FD7D0FFF7D4FBDF
:104F900001A902A800F0D8FDD8B92046FFF722FEEB
:104FA0000028CFD0019904F1100000F047FD204601
:104FB000FFF781FE00F054FC0028C8D14FF0E02339
:104FC0004FF08052C3F8042DBFF34F8FBFF36F8FA4
:104FD000BDE72046FFF76FFE00F042FC00208DE7A2
:104FE0002DE9F84390B10F4616461C460546B1B16F
:104FF000022C20D1EB6B012B1DD04FF0500383F31B
:105000001188BFF36F8FBFF34F8FFEE74FF0500350
:1050100083F31188BFF36F8FBFF34F8FFEE7036CED
:10502000002BE5D04FF0500383F31188BFF36F8F4F
:10503000BFF34F8FFEE7FFF783FCEFF311884FF0CC
:10504000500383F31188BFF36F8FBFF34F8FAA6BA9
:10505000EB6B9A4206D3022C04D0002088F311880F
:10506000BDE8F88395F845904FFA89F9AB6B224675
:1050700039462846FFF7D2FDB9F1FF3F06D009F1C6
:1050800001035BB285F845300120E7E76B6A0BB995
:105090000120E3E705F1240000F004FD18B126B17A
:1050A00001203060DAE70120D8E70120D6E7F0B52B
:1050B00085B0019290B10F460446C1B100F09AFD4F
:1050C000064600BB019B002B5ED04FF0500383F3DC
:1050D0001188BFF36F8FBFF34F8FFEE74FF0500380
:1050E00083F31188BFF36F8FBFF34F8FFEE7036C1D
:1050F000002BE3D04FF0500383F31188BFF36F8F81
:10510000BFF34F8FFEE700263EE039462046FFF70B
:10511000C0FD013DA563236923B9FFF70DFB012005
:1051200005B0F0BD04F1100000F0BCFC0028F4D084
:105130004FF0E0234FF08052C3F8042DBFF34F8FA0
:10514000BFF36F8FE9E7FFF7F7FA0020E8E702A85F
:1051500000F0EEFC012621E0002384F8443029E031
:10516000002384F845302BE02046FFF7A4FD00F033
:1051700077FB09E02046FFF79EFD00F071FB20461B
:10518000FFF73FFD00283FD1FFF7B4FAA56B002DD4
:10519000BBD1019B002BD6D0002ED8D0FFF7CCFA84
:1051A00000F0C4FAFFF7A6FA94F844305BB2B3F10A
:1051B000FF3FD1D094F845305BB2B3F1FF3FCFD081
:1051C000FFF7BAFA01A902A800F0BEFC0028D1D16D
:1051D0002046FFF716FD0028C6D0019904F12400EF
:1051E00000F02CFC2046FFF766FD00F039FB00289C
:1051F000CAD14FF0E0234FF08052C3F8042DBFF323
:105200004F8FBFF36F8FBFE7002089E70023072B85
:105210000CD8074A52F833200AB10133F7E7044AA1
:1052200042F8331002EBC30250607047704700BF72
:105230003849002070B504460D461646FFF75AFA65
:1052400094F844305BB2B3F1FF3F0DD094F8453091
:105250005BB2B3F1FF3F0BD0FFF76EFAA36B5BB10C
:105260002046FFF728FD70BD002384F84430EDE7A9
:10527000002384F84530EFE73246294604F1240044
:1052800000F0F4FBECE70000084B1B681B6823B937
:10529000074B4FF0FF321A607047044B1B68DB6806
:1052A000DB685A68024B1A60704700BFE84900206B
:1052B000804900202DE9F04780460D461746994663
:1052C000089EDDF824A00A9C9200A521206B03F023
:1052D000B7FA236B07F18042013A03EB820727F00C
:1052E0000707B5B34FF0000CBCF10F0F09D815F844
:1052F0000C3004EB0C0282F8343013B10CF1010CC9
:10530000F2E7002384F84330062E00D90626E66231
:1053100066640025A564201DFFF749F904F1180013
:10532000FFF745F92461C6F10706A6616462E564EA
:1053300084F8505084F852504A4641463846FFF7A8
:10534000AFF92060BAF1000F01D0CAF80040BDE803
:10535000F087002384F83430D6E7000038B5002405
:1053600007E004EB840293000E481844FFF714F999
:105370000134062CF5D90C4D2846FFF70DF90B4CDE
:105380002046FFF709F90A48FFF706F90948FFF731
:1053900003F90948FFF700F9084B1D60084B1C6032
:1053A00038BD00BF144A0020004A0020EC4900200C
:1053B000D0490020BC490020A4490020E849002031
:1053C000E449002010B50446FFF794F9214A136818
:1053D00001331360204B1B685BB1204B1B686BB91A
:1053E0001D4B1B68DA6AE36A9A4207D81A4B1C60A5
:1053F00004E0194B1C601368012B28D0184A13686D
:1054000001331360E06A01238340164A11680B439D
:10541000136000EB8000211D134B03EB8000FFF7AE
:10542000C9F8FFF789F90D4B1B687BB10A4B1B6864
:10543000DA6AE36A9A4209D24FF0E0234FF08052D1
:10544000C3F8042DBFF34F8FBFF36F8F10BDFFF76D
:1054500085FFD3E7A0490020A04A002094490020FE
:105460008449002098490020144A002010B50446C1
:1054700090F8513063B1012B11D0022B0ED04FF0B8
:10548000500383F31188BFF36F8FBFF34F8FFEE795
:10549000006BFFF769FB2046FFF766FB10BDFFF7C7
:1054A00063FBFBE70F4B1B68D3B110B5FFF722F985
:1054B0000D4BDB68DC68201DFFF7A0F80B4A136872
:1054C000013B1360074A1368013B1360FFF734F98F
:1054D0002046FFF7CBFF034B1B68002BE6D110BD26
:1054E000704700BFB8490020BC490020A0490020F7
:1054F00008B5FFF7D7FF074B1B68012BF9D94FF011
:10550000E0234FF08052C3F8042DBFF34F8FBFF359
:105510006F8FEEE7144A002070B504460D461F4B0E
:105520001E681F4B1A68002182F852101868043058
:10553000FFF764F848B91A4B1B68DB6A01229A40EE
:1055400018490B6823EA02030B60B4F1FF3F0DD04A
:105550003444134B1B685C60A64210D9124B186888
:105560000F4B19680431FFF730F870BD002DEFD0F4
:105570000B4B196804310D48FFF71CF8F5E70C4B8D
:105580001868074B19680431FFF71FF8094B1B68AF
:10559000A342EAD9074B1C60E7E700BF9C49002003
:1055A000A04A002098490020E4490020A449002096
:1055B000E84900208049002030B587B00B9C7CB1C1
:1055C0000C9DB5B154250495049D542D1AD04FF06F
:1055D000500383F31188BFF36F8FBFF34F8FFEE744
:1055E0004FF0500383F31188BFF36F8FBFF34F8FDA
:1055F000FEE74FF0500383F31188BFF36F8FBFF3C3
:105600004F8FFEE7049D0C9D2C63022485F85140CA
:1056100000240394029505AC01940A9C0094FFF7C2
:1056200049FE0C98FFF7CEFE059807B030BD2DE976
:10563000F04385B00746884614461E469000FFF7A3
:1056400011FA08B381465420FFF70CFA0546A8B1B9
:10565000C0F83090002380F85130039302900D9BE6
:1056600001930C9B00933346224641463846FFF790
:1056700021FE2846FFF7A6FE012007E04846FFF777
:1056800073FA4FF0FF3001E04FF0FF3005B0BDE896
:10569000F083000010B588B000240594069407AA92
:1056A00006A905A8FBF790FB059B0293069B0193B7
:1056B00000942346079A17491748FFF77DFF174BB9
:1056C0001860C0B100F06AFB012815D14FF05003FB
:1056D00083F31188BFF36F8FBFF34F8F104B4FF0E1
:1056E000FF321A600F4B01221A600F4B00221A6022
:1056F000FFF79AF803E00020B0F1FF3F01D008B0B7
:1057000010BD4FF0500383F31188BFF36F8FBFF3C9
:105710004F8FFEE794960008F15400087C49002062
:1057200080490020944900209C490020024A1368C7
:1057300001331360704700BF78490020014B18689F
:10574000704700BF9C490020F8B53A4B1B68002BFE
:1057500069D1394B1D6801351D60C5B9374B1B68D0
:105760001B6843B14FF0500383F31188BFF36F8F71
:10577000BFF34F8FFEE7314A1168314B1868106054
:105780001960304A136801331360FFF77DFD2E4B1B
:105790001B68AB423DD900272C4B1B68DB6A03EB2F
:1057A00083039A002A4B9B58012B00D90127294BD0
:1057B0001B68002B3CD001273AE001271F4B1B68D8
:1057C0001B6843B31D4B1B68DB68DC6863689D4244
:1057D00026D3261D3046FEF711FFA36A1BB104F144
:1057E0001800FEF70BFFE36A01229A401A49086885
:1057F00002430A6003EB83039A00314614481044C5
:10580000FEF7D8FEE26A114B1B68DB6A9A42D4D2DB
:10581000D4E70027D2E70C4B4FF0FF321A60BBE70A
:10582000094A1360B8E70D4A136801331360002773
:105830003846F8BD784900209C490020E8490020FE
:10584000E44900208849002080490020A04A002027
:10585000144A00208C4900209849002090490020DB
:1058600038B5354B1B6843B94FF0500383F31188AB
:10587000BFF36F8FBFF34F8FFEE7FEF73BFF2E4B5B
:105880001A68013A1A601B68002B4FD12B4B1B681A
:105890000BB900244BE00024294B1B681BB3284B99
:1058A000DB68DC6804F11800FEF7A8FE251D284619
:1058B000FEF7A4FEE06A01238340224A11680B43ED
:1058C000136000EB800029461F4B03EB8000FEF7BE
:1058D00071FEE26A1D4B1B68DB6A9A42DCD31C4BEB
:1058E00001221A60D8E70CB1FFF7CEFC194B1C68F7
:1058F00084B9174B1C68D4B14FF0E0234FF08052AD
:10590000C3F8042DBFF34F8FBFF36F8F01240EE058
:10591000013C07D0FFF718FF0028F9D00C4B0122FB
:105920001A60F5E70B4B00221A60E2E70024FEF74D
:1059300003FF204638BD00BF78490020A049002061
:10594000D049002098490020144A0020A04A002095
:105950008C4900209049002010B5A8B10446104B96
:105960001B6843B14FF0500383F31188BFF36F8F6F
:10597000BFF34F8FFEE7FFF7D9FE00212046FFF768
:10598000CBFDFFF76DFF48B94FF0E0234FF0805299
:10599000C3F8042DBFF34F8FBFF36F8F10BD00BF4F
:1059A00078490020204B1B681BB1204B01221A6054
:1059B00070471E4B00221A601D4B1B68B3FA83F31D
:1059C000DBB2C3F11F0303EB83018A0019498A5834
:1059D00042B94FF0500383F31188BFF36F8FBFF3C9
:1059E0004F8FFEE7134803EB83018A00024451689E
:1059F0004968516003EB830C4FEA8C020832024481
:105A0000914209D003EB83039A000A4B13445B686D
:105A1000DA68094B1A607047486862469100054A87
:105A20000A445060EEE700BF784900208C4900200E
:105A300098490020144A0020A04A002058B110B50F
:105A40000C46094A11681831FEF7BFFD01212046B6
:105A5000FFF762FD10BD4FF0500383F31188BFF3D1
:105A60006F8FBFF34F8FFEE7A04A002038B570B1AB
:105A70000D4614460A4A11681831FEF79BFD0CB119
:105A80004FF0FF3521462846FFF746FD38BD4FF061
:105A9000500383F31188BFF36F8FBFF34F8FFEE77F
:105AA000A04A002038B5C368DC6824B304F11805A7
:105AB0002846FEF7A3FD184B1B682BBB251D284667
:105AC000FEF79CFDE06A01238340144A11680B43F2
:105AD000136000EB80002946114B03EB8000FEF7BA
